{
  "abi": [
    {
      "inputs": [
        {
          "internalType": "address",
          "name": "_admin",
          "type": "address"
        }
      ],
      "stateMutability": "nonpayable",
      "type": "constructor"
    },
    {
      "anonymous": false,
      "inputs": [
        {
          "indexed": false,
          "internalType": "bytes32",
          "name": "receiptCode",
          "type": "bytes32"
        },
        {
          "indexed": false,
          "internalType": "uint256",
          "name": "restaurantId",
          "type": "uint256"
        }
      ],
      "name": "ReceiptCodeStored",
      "type": "event"
    },
    {
      "anonymous": false,
      "inputs": [
        {
          "indexed": false,
          "internalType": "bytes32",
          "name": "receiptCode",
          "type": "bytes32"
        },
        {
          "indexed": false,
          "internalType": "uint256",
          "name": "restaurantId",
          "type": "uint256"
        },
        {
          "indexed": false,
          "internalType": "uint256",
          "name": "rating",
          "type": "uint256"
        }
      ],
      "name": "ReviewSubmitted",
      "type": "event"
    },
    {
      "inputs": [
        {
          "internalType": "bytes32",
          "name": "receiptCode",
          "type": "bytes32"
        },
        {
          "internalType": "uint256",
          "name": "restaurantId",
          "type": "uint256"
        }
      ],
      "name": "addReceiptCode",
      "outputs": [],
      "stateMutability": "nonpayable",
      "type": "function"
    },
    {
      "inputs": [],
      "name": "admin",
      "outputs": [
        {
          "internalType": "address",
          "name": "",
          "type": "address"
        }
      ],
      "stateMutability": "view",
      "type": "function"
    },
    {
      "inputs": [
        {
          "internalType": "bytes32",
          "name": "_bytes32",
          "type": "bytes32"
        }
      ],
      "name": "bytes32ToString",
      "outputs": [
        {
          "internalType": "string",
          "name": "",
          "type": "string"
        }
      ],
      "stateMutability": "pure",
      "type": "function"
    },
    {
      "inputs": [
        {
          "internalType": "bytes32",
          "name": "receiptCode",
          "type": "bytes32"
        }
      ],
      "name": "getReceiptCode",
      "outputs": [
        {
          "internalType": "uint256",
          "name": "",
          "type": "uint256"
        }
      ],
      "stateMutability": "view",
      "type": "function"
    },
    {
      "inputs": [
        {
          "internalType": "uint256",
          "name": "restaurantId",
          "type": "uint256"
        }
      ],
      "name": "getReviews",
      "outputs": [
        {
          "components": [
            {
              "internalType": "address",
              "name": "userId",
              "type": "address"
            },
            {
              "internalType": "uint256",
              "name": "rating",
              "type": "uint256"
            }
          ],
          "internalType": "struct VerifiedBite.Review[]",
          "name": "",
          "type": "tuple[]"
        }
      ],
      "stateMutability": "view",
      "type": "function"
    },
    {
      "inputs": [
        {
          "internalType": "string",
          "name": "receiptCode",
          "type": "string"
        },
        {
          "internalType": "uint256",
          "name": "rating",
          "type": "uint256"
        }
      ],
      "name": "submitReview",
      "outputs": [],
      "stateMutability": "nonpayable",
      "type": "function"
    },
    {
      "inputs": [
        {
          "internalType": "uint256",
          "name": "",
          "type": "uint256"
        },
        {
          "internalType": "uint256",
          "name": "",
          "type": "uint256"
        }
      ],
      "name": "submittedReviews",
      "outputs": [
        {
          "internalType": "address",
          "name": "userId",
          "type": "address"
        },
        {
          "internalType": "uint256",
          "name": "rating",
          "type": "uint256"
        }
      ],
      "stateMutability": "view",
      "type": "function"
    },
    {
      "inputs": [
        {
          "internalType": "bytes32",
          "name": "",
          "type": "bytes32"
        }
      ],
      "name": "unusedReceiptCodes",
      "outputs": [
        {
          "internalType": "uint256",
          "name": "",
          "type": "uint256"
        }
      ],
      "stateMutability": "view",
      "type": "function"
    }
  ],
  "bytecode": {
    "object": "0x608060405234801561001057600080fd5b50604051610a70380380610a7083398101604081905261002f91610246565b600080546001600160a01b039283166001600160a01b031991821617825560016020818152604080518082018252736cbaa746e1f17804e9b2b81222c9f4a0a50a64a980825260058285019081527fcc69885fda6bcc1a4ace058b4a62bf5e179ea78fd58a1ccd71c22cc9b688792f80548088018255908952925160029384027f66b32740ad8041bcc3b909c72d7e1afe60094ec55e3cde329b4b3a28501d826c81018054928c16928a169290921790915590517f66b32740ad8041bcc3b909c72d7e1afe60094ec55e3cde329b4b3a28501d826d909101558484528251808401845281815260048186019081527fd9d16d34ffb15ba3a3d852f0d403e2ce1d691fb54de27ac87cd2f993f3ec330f80548089018255908a5291519184027f9feccf6caa602894c8105bdda7f81b2a7bb7de7dba1f18af92d8d057b708cb4181018054938c16938a1693909317909255517f9feccf6caa602894c8105bdda7f81b2a7bb7de7dba1f18af92d8d057b708cb42909101558484528251808401909352825260039282019283527f7dfe757ecd65cbd7922a9c0161e935dd7fdbcc0e999689c7d31633896b1fc60b8054948501815590955251919093027f73661f06600408586227726a59a462d4c7b87e9a7813effa8f25d467d8ff051c81018054929095169190921617909255517f73661f06600408586227726a59a462d4c7b87e9a7813effa8f25d467d8ff051d90910155610276565b60006020828403121561025857600080fd5b81516001600160a01b038116811461026f57600080fd5b9392505050565b6107eb806102856000396000f3fe608060405234801561001057600080fd5b50600436106100885760003560e01c80639d4a22551161005b5780639d4a225514610127578063e475820214610147578063f851a4401461015a578063f91535141461018557600080fd5b80632a16854c1461008d57806341e301a4146100c457806377d2cf10146100f25780639201de5514610107575b600080fd5b6100a061009b366004610552565b6101a5565b604080516001600160a01b0390931683526020830191909152015b60405180910390f35b6100e46100d2366004610574565b60009081526002602052604090205490565b6040519081526020016100bb565b6101056101003660046105a3565b6101eb565b005b61011a610115366004610574565b610344565b6040516100bb919061067c565b61013a610135366004610574565b61047b565b6040516100bb91906106af565b610105610155366004610552565b610503565b60005461016d906001600160a01b031681565b6040516001600160a01b0390911681526020016100bb565b6100e4610193366004610574565b60026020526000908152604090205481565b600160205281600052604060002081815481106101c157600080fd5b6000918252602090912060029091020180546001909101546001600160a01b039091169250905082565b80600181101580156101fe575060058111155b61024f5760405162461bcd60e51b815260206004820152601e60248201527f526174696e67206d757374206265206265747765656e203120616e642035000060448201526064015b60405180910390fd5b6000836040516020016102629190610707565b60408051601f1981840301815291815281516020928301206000818152600290935291205490915080151561029683610344565b6040516020016102a69190610723565b604051602081830303815290604052906102d35760405162461bcd60e51b8152600401610246919061067c565b50600090815260016020818152604080842081518083018352338152808401988952815480860183559186528386209051600292830290910180546001600160a01b0319166001600160a01b0390921691909117815597519790930196909655928252909152918220919091555050565b606060005b60208160ff1610801561037d5750828160ff166020811061036c5761036c610772565b1a60f81b6001600160f81b03191615155b15610394578061038c81610788565b915050610349565b60008160ff1667ffffffffffffffff8111156103b2576103b261058d565b6040519080825280601f01601f1916602001820160405280156103dc576020820181803683370190505b509050600091505b60208260ff161080156104185750838260ff166020811061040757610407610772565b1a60f81b6001600160f81b03191615155b1561047457838260ff166020811061043257610432610772565b1a60f81b818360ff168151811061044b5761044b610772565b60200101906001600160f81b031916908160001a9053508161046c81610788565b9250506103e4565b9392505050565b606060016000838152602001908152602001600020805480602002602001604051908101604052809291908181526020016000905b828210156104f8576000848152602090819020604080518082019091526002850290910180546001600160a01b031682526001908101548284015290835290920191016104b0565b505050509050919050565b60008281526002602090815260409182902083905581518481529081018390527f4b68301a6919958e27fa45891ed4996fc79f01e003b9bd620d9ea16b6a3c1759910160405180910390a15050565b6000806040838503121561056557600080fd5b50508035926020909101359150565b60006020828403121561058657600080fd5b5035919050565b634e487b7160e01b600052604160045260246000fd5b600080604083850312156105b657600080fd5b823567ffffffffffffffff808211156105ce57600080fd5b818501915085601f8301126105e257600080fd5b8135818111156105f4576105f461058d565b604051601f8201601f19908116603f0116810190838211818310171561061c5761061c61058d565b8160405282815288602084870101111561063557600080fd5b826020860160208301376000602093820184015298969091013596505050505050565b60005b8381101561067357818101518382015260200161065b565b50506000910152565b602081526000825180602084015261069b816040850160208701610658565b601f01601f19169190910160400192915050565b602080825282518282018190526000919060409081850190868401855b828110156106fa57815180516001600160a01b031685528601518685015292840192908501906001016106cc565b5091979650505050505050565b60008251610719818460208701610658565b9190910192915050565b7f5265636569707420636f6465206e6f7420666f756e6420666f7220686173683a8152600160fd1b602082015260008251610765816021850160208701610658565b9190910160210192915050565b634e487b7160e01b600052603260045260246000fd5b600060ff821660ff81036107ac57634e487b7160e01b600052601160045260246000fd5b6001019291505056fea2646970667358221220949974ed98f47849b0560a11c4aacac8712046070694595451643ce42937357464736f6c63430008150033",
    "linkReferences": {}
  },
  "methodIdentifiers": {
    "addReceiptCode(bytes32,uint256)": "e4758202",
    "admin()": "f851a440",
    "bytes32ToString(bytes32)": "9201de55",
    "getReceiptCode(bytes32)": "41e301a4",
    "getReviews(uint256)": "9d4a2255",
    "submitReview(string,uint256)": "77d2cf10",
    "submittedReviews(uint256,uint256)": "2a16854c",
    "unusedReceiptCodes(bytes32)": "f9153514"
  },
  "id": 18
}