{
  "abi": [
    {
      "inputs": [
        {
          "internalType": "address",
          "name": "_admin",
          "type": "address"
        }
      ],
      "stateMutability": "nonpayable",
      "type": "constructor"
    },
    {
      "anonymous": false,
      "inputs": [
        {
          "indexed": false,
          "internalType": "bytes32",
          "name": "receiptCode",
          "type": "bytes32"
        },
        {
          "indexed": false,
          "internalType": "uint256",
          "name": "restaurantId",
          "type": "uint256"
        }
      ],
      "name": "ReceiptCodeStored",
      "type": "event"
    },
    {
      "anonymous": false,
      "inputs": [
        {
          "indexed": false,
          "internalType": "bytes32",
          "name": "receiptCode",
          "type": "bytes32"
        },
        {
          "indexed": false,
          "internalType": "uint256",
          "name": "restaurantId",
          "type": "uint256"
        },
        {
          "indexed": false,
          "internalType": "uint256",
          "name": "rating",
          "type": "uint256"
        }
      ],
      "name": "ReviewSubmitted",
      "type": "event"
    },
    {
      "inputs": [
        {
          "internalType": "bytes32",
          "name": "receiptCode",
          "type": "bytes32"
        },
        {
          "internalType": "uint256",
          "name": "restaurantId",
          "type": "uint256"
        }
      ],
      "name": "addReceiptCode",
      "outputs": [],
      "stateMutability": "nonpayable",
      "type": "function"
    },
    {
      "inputs": [],
      "name": "admin",
      "outputs": [
        {
          "internalType": "address",
          "name": "",
          "type": "address"
        }
      ],
      "stateMutability": "view",
      "type": "function"
    },
    {
      "inputs": [
        {
          "internalType": "bytes32",
          "name": "receiptCode",
          "type": "bytes32"
        }
      ],
      "name": "getReceiptCode",
      "outputs": [
        {
          "internalType": "uint256",
          "name": "",
          "type": "uint256"
        }
      ],
      "stateMutability": "view",
      "type": "function"
    },
    {
      "inputs": [
        {
          "internalType": "uint256",
          "name": "restaurantId",
          "type": "uint256"
        }
      ],
      "name": "getReviews",
      "outputs": [
        {
          "components": [
            {
              "internalType": "address",
              "name": "userId",
              "type": "address"
            },
            {
              "internalType": "uint256",
              "name": "rating",
              "type": "uint256"
            }
          ],
          "internalType": "struct VerifiedBite.Review[]",
          "name": "",
          "type": "tuple[]"
        }
      ],
      "stateMutability": "view",
      "type": "function"
    },
    {
      "inputs": [
        {
          "internalType": "uint256",
          "name": "receiptCode",
          "type": "uint256"
        },
        {
          "internalType": "uint256",
          "name": "rating",
          "type": "uint256"
        }
      ],
      "name": "submitReview",
      "outputs": [],
      "stateMutability": "nonpayable",
      "type": "function"
    },
    {
      "inputs": [
        {
          "internalType": "uint256",
          "name": "",
          "type": "uint256"
        },
        {
          "internalType": "uint256",
          "name": "",
          "type": "uint256"
        }
      ],
      "name": "submittedReviews",
      "outputs": [
        {
          "internalType": "address",
          "name": "userId",
          "type": "address"
        },
        {
          "internalType": "uint256",
          "name": "rating",
          "type": "uint256"
        }
      ],
      "stateMutability": "view",
      "type": "function"
    },
    {
      "inputs": [
        {
          "internalType": "bytes32",
          "name": "",
          "type": "bytes32"
        }
      ],
      "name": "unusedReceiptCodes",
      "outputs": [
        {
          "internalType": "uint256",
          "name": "",
          "type": "uint256"
        }
      ],
      "stateMutability": "view",
      "type": "function"
    }
  ],
  "bytecode": {
    "object": "0x608060405234801561001057600080fd5b5060405161074038038061074083398101604081905261002f91610246565b600080546001600160a01b039283166001600160a01b031991821617825560016020818152604080518082018252736cbaa746e1f17804e9b2b81222c9f4a0a50a64a980825260058285019081527fcc69885fda6bcc1a4ace058b4a62bf5e179ea78fd58a1ccd71c22cc9b688792f80548088018255908952925160029384027f66b32740ad8041bcc3b909c72d7e1afe60094ec55e3cde329b4b3a28501d826c81018054928c16928a169290921790915590517f66b32740ad8041bcc3b909c72d7e1afe60094ec55e3cde329b4b3a28501d826d909101558484528251808401845281815260048186019081527fd9d16d34ffb15ba3a3d852f0d403e2ce1d691fb54de27ac87cd2f993f3ec330f80548089018255908a5291519184027f9feccf6caa602894c8105bdda7f81b2a7bb7de7dba1f18af92d8d057b708cb4181018054938c16938a1693909317909255517f9feccf6caa602894c8105bdda7f81b2a7bb7de7dba1f18af92d8d057b708cb42909101558484528251808401909352825260039282019283527f7dfe757ecd65cbd7922a9c0161e935dd7fdbcc0e999689c7d31633896b1fc60b8054948501815590955251919093027f73661f06600408586227726a59a462d4c7b87e9a7813effa8f25d467d8ff051c81018054929095169190921617909255517f73661f06600408586227726a59a462d4c7b87e9a7813effa8f25d467d8ff051d90910155610276565b60006020828403121561025857600080fd5b81516001600160a01b038116811461026f57600080fd5b9392505050565b6104bb806102856000396000f3fe608060405234801561001057600080fd5b506004361061007d5760003560e01c80639d4a22551161005b5780639d4a2255146100fc578063e47582021461011c578063f851a4401461012f578063f91535141461015a57600080fd5b80632a16854c1461008257806341e301a4146100b9578063793a4bbd146100e7575b600080fd5b6100956100903660046103f2565b61017a565b604080516001600160a01b0390931683526020830191909152015b60405180910390f35b6100d96100c7366004610414565b60009081526002602052604090205490565b6040519081526020016100b0565b6100fa6100f53660046103f2565b6101c0565b005b61010f61010a366004610414565b61031b565b6040516100b0919061042d565b6100fa61012a3660046103f2565b6103a3565b600054610142906001600160a01b031681565b6040516001600160a01b0390911681526020016100b0565b6100d9610168366004610414565b60026020526000908152604090205481565b6001602052816000526040600020818154811061019657600080fd5b6000918252602090912060029091020180546001909101546001600160a01b039091169250905082565b80600181101580156101d3575060058111155b6102245760405162461bcd60e51b815260206004820152601e60248201527f526174696e67206d757374206265206265747765656e203120616e642035000060448201526064015b60405180910390fd5b60008360405160200161023991815260200190565b60408051601f1981840301815291815281516020928301206000818152600290935290822054909250908190036102ab5760405162461bcd60e51b8152602060048201526016602482015275149958d95a5c1d0818dbd919481b9bdd08199bdd5b9960521b604482015260640161021b565b600090815260016020818152604080842081518083018352338152808401988952815480860183559186528386209051600292830290910180546001600160a01b0319166001600160a01b0390921691909117815597519790930196909655928252909152918220919091555050565b606060016000838152602001908152602001600020805480602002602001604051908101604052809291908181526020016000905b82821015610398576000848152602090819020604080518082019091526002850290910180546001600160a01b03168252600190810154828401529083529092019101610350565b505050509050919050565b60008281526002602090815260409182902083905581518481529081018390527f4b68301a6919958e27fa45891ed4996fc79f01e003b9bd620d9ea16b6a3c1759910160405180910390a15050565b6000806040838503121561040557600080fd5b50508035926020909101359150565b60006020828403121561042657600080fd5b5035919050565b602080825282518282018190526000919060409081850190868401855b8281101561047857815180516001600160a01b0316855286015186850152928401929085019060010161044a565b509197965050505050505056fea2646970667358221220398e06fe074efe7dc685460f49d323ec215f42d686f5ce6a893e16407f075fe464736f6c63430008150033",
    "linkReferences": {}
  },
  "methodIdentifiers": {
    "addReceiptCode(bytes32,uint256)": "e4758202",
    "admin()": "f851a440",
    "getReceiptCode(bytes32)": "41e301a4",
    "getReviews(uint256)": "9d4a2255",
    "submitReview(uint256,uint256)": "793a4bbd",
    "submittedReviews(uint256,uint256)": "2a16854c",
    "unusedReceiptCodes(bytes32)": "f9153514"
  },
  "id": 18
}