{
  "abi": [
    {
      "inputs": [
        {
          "internalType": "address",
          "name": "_admin",
          "type": "address"
        }
      ],
      "stateMutability": "nonpayable",
      "type": "constructor"
    },
    {
      "inputs": [
        {
          "internalType": "bytes32",
          "name": "receiptCode",
          "type": "bytes32"
        },
        {
          "internalType": "uint256",
          "name": "restaurantId",
          "type": "uint256"
        }
      ],
      "name": "addReceiptCode",
      "outputs": [],
      "stateMutability": "nonpayable",
      "type": "function"
    },
    {
      "inputs": [],
      "name": "admin",
      "outputs": [
        {
          "internalType": "address",
          "name": "",
          "type": "address"
        }
      ],
      "stateMutability": "view",
      "type": "function"
    },
    {
      "inputs": [
        {
          "internalType": "uint256",
          "name": "restaurantId",
          "type": "uint256"
        }
      ],
      "name": "getReviews",
      "outputs": [
        {
          "components": [
            {
              "internalType": "address",
              "name": "userId",
              "type": "address"
            },
            {
              "internalType": "uint256",
              "name": "rating",
              "type": "uint256"
            }
          ],
          "internalType": "struct VerifiedBite.Review[]",
          "name": "",
          "type": "tuple[]"
        }
      ],
      "stateMutability": "view",
      "type": "function"
    },
    {
      "inputs": [
        {
          "internalType": "bytes32",
          "name": "receiptCode",
          "type": "bytes32"
        },
        {
          "internalType": "uint256",
          "name": "rating",
          "type": "uint256"
        }
      ],
      "name": "submitReview",
      "outputs": [],
      "stateMutability": "nonpayable",
      "type": "function"
    },
    {
      "inputs": [
        {
          "internalType": "uint256",
          "name": "",
          "type": "uint256"
        },
        {
          "internalType": "uint256",
          "name": "",
          "type": "uint256"
        }
      ],
      "name": "submittedReviews",
      "outputs": [
        {
          "internalType": "address",
          "name": "userId",
          "type": "address"
        },
        {
          "internalType": "uint256",
          "name": "rating",
          "type": "uint256"
        }
      ],
      "stateMutability": "view",
      "type": "function"
    },
    {
      "inputs": [
        {
          "internalType": "bytes32",
          "name": "",
          "type": "bytes32"
        }
      ],
      "name": "unusedReceiptCodes",
      "outputs": [
        {
          "internalType": "uint256",
          "name": "",
          "type": "uint256"
        }
      ],
      "stateMutability": "view",
      "type": "function"
    }
  ],
  "bytecode": {
    "object": "0x608060405234801561001057600080fd5b5060405161068738038061068783398101604081905261002f91610246565b600080546001600160a01b039283166001600160a01b031991821617825560016020818152604080518082018252736cbaa746e1f17804e9b2b81222c9f4a0a50a64a980825260058285019081527fcc69885fda6bcc1a4ace058b4a62bf5e179ea78fd58a1ccd71c22cc9b688792f80548088018255908952925160029384027f66b32740ad8041bcc3b909c72d7e1afe60094ec55e3cde329b4b3a28501d826c81018054928c16928a169290921790915590517f66b32740ad8041bcc3b909c72d7e1afe60094ec55e3cde329b4b3a28501d826d909101558484528251808401845281815260048186019081527fd9d16d34ffb15ba3a3d852f0d403e2ce1d691fb54de27ac87cd2f993f3ec330f80548089018255908a5291519184027f9feccf6caa602894c8105bdda7f81b2a7bb7de7dba1f18af92d8d057b708cb4181018054938c16938a1693909317909255517f9feccf6caa602894c8105bdda7f81b2a7bb7de7dba1f18af92d8d057b708cb42909101558484528251808401909352825260039282019283527f7dfe757ecd65cbd7922a9c0161e935dd7fdbcc0e999689c7d31633896b1fc60b8054948501815590955251919093027f73661f06600408586227726a59a462d4c7b87e9a7813effa8f25d467d8ff051c81018054929095169190921617909255517f73661f06600408586227726a59a462d4c7b87e9a7813effa8f25d467d8ff051d90910155610276565b60006020828403121561025857600080fd5b81516001600160a01b038116811461026f57600080fd5b9392505050565b610402806102856000396000f3fe608060405234801561001057600080fd5b50600436106100625760003560e01c80632a16854c146100675780639d4a22551461009e578063c9543209146100be578063e4758202146100d3578063f851a440146100f3578063f91535141461011e575b600080fd5b61007a610075366004610339565b61014c565b604080516001600160a01b0390931683526020830191909152015b60405180910390f35b6100b16100ac36600461035b565b610192565b6040516100959190610374565b6100d16100cc366004610339565b61021a565b005b6100d16100e1366004610339565b60009182526002602052604090912055565b600054610106906001600160a01b031681565b6040516001600160a01b039091168152602001610095565b61013e61012c36600461035b565b60026020526000908152604090205481565b604051908152602001610095565b6001602052816000526040600020818154811061016857600080fd5b6000918252602090912060029091020180546001909101546001600160a01b039091169250905082565b606060016000838152602001908152602001600020805480602002602001604051908101604052809291908181526020016000905b8282101561020f576000848152602090819020604080518082019091526002850290910180546001600160a01b031682526001908101548284015290835290920191016101c7565b505050509050919050565b806001811015801561022d575060058111155b61027e5760405162461bcd60e51b815260206004820152601e60248201527f526174696e67206d757374206265206265747765656e203120616e642035000060448201526064015b60405180910390fd5b600083815260026020526040812054908190036102d65760405162461bcd60e51b8152602060048201526016602482015275149958d95a5c1d0818dbd919481b9bdd08199bdd5b9960521b6044820152606401610275565b6000908152600160208181526040808420815180830190925233825281830196875280548085018255908552919093209251600290910290920180546001600160a01b0319166001600160a01b0390931692909217825592519201919091555050565b6000806040838503121561034c57600080fd5b50508035926020909101359150565b60006020828403121561036d57600080fd5b5035919050565b602080825282518282018190526000919060409081850190868401855b828110156103bf57815180516001600160a01b03168552860151868501529284019290850190600101610391565b509197965050505050505056fea26469706673582212203a904842a81804d252dbd167727217091480550d176d30ad1fb11dc86bdb990e64736f6c63430008150033",
    "linkReferences": {}
  },
  "methodIdentifiers": {
    "addReceiptCode(bytes32,uint256)": "e4758202",
    "admin()": "f851a440",
    "getReviews(uint256)": "9d4a2255",
    "submitReview(bytes32,uint256)": "c9543209",
    "submittedReviews(uint256,uint256)": "2a16854c",
    "unusedReceiptCodes(bytes32)": "f9153514"
  },
  "id": 18
}