{
  "abi": [
    {
      "inputs": [
        {
          "internalType": "address",
          "name": "_admin",
          "type": "address"
        }
      ],
      "stateMutability": "nonpayable",
      "type": "constructor"
    },
    {
      "inputs": [
        {
          "internalType": "bytes32",
          "name": "receiptCode",
          "type": "bytes32"
        },
        {
          "internalType": "uint256",
          "name": "restaurantId",
          "type": "uint256"
        }
      ],
      "name": "addReceiptCode",
      "outputs": [],
      "stateMutability": "nonpayable",
      "type": "function"
    },
    {
      "inputs": [],
      "name": "admin",
      "outputs": [
        {
          "internalType": "address",
          "name": "",
          "type": "address"
        }
      ],
      "stateMutability": "view",
      "type": "function"
    },
    {
      "inputs": [
        {
          "internalType": "bytes32",
          "name": "receiptCode",
          "type": "bytes32"
        },
        {
          "internalType": "uint256",
          "name": "rating",
          "type": "uint256"
        }
      ],
      "name": "submitReview",
      "outputs": [],
      "stateMutability": "nonpayable",
      "type": "function"
    },
    {
      "inputs": [
        {
          "internalType": "uint256",
          "name": "",
          "type": "uint256"
        },
        {
          "internalType": "uint256",
          "name": "",
          "type": "uint256"
        }
      ],
      "name": "submittedReviews",
      "outputs": [
        {
          "internalType": "address",
          "name": "userId",
          "type": "address"
        },
        {
          "internalType": "uint256",
          "name": "rating",
          "type": "uint256"
        }
      ],
      "stateMutability": "view",
      "type": "function"
    },
    {
      "inputs": [
        {
          "internalType": "bytes32",
          "name": "",
          "type": "bytes32"
        }
      ],
      "name": "unusedReceiptCodes",
      "outputs": [
        {
          "internalType": "uint256",
          "name": "",
          "type": "uint256"
        }
      ],
      "stateMutability": "view",
      "type": "function"
    }
  ],
  "bytecode": {
    "object": "0x608060405234801561001057600080fd5b5060405161058238038061058283398101604081905261002f91610246565b600080546001600160a01b039283166001600160a01b031991821617825560016020818152604080518082018252736cbaa746e1f17804e9b2b81222c9f4a0a50a64a980825260058285019081527fd86039480f65c30891085d59fb6dfac220ac42d42d8be7cf66a935b5f252de0180548088018255908952925160029384027fffce30f8d2e2132f57cc1fe276d87acfcc2b8af3111c631d055151f95522796781018054928c16928a169290921790915590517fffce30f8d2e2132f57cc1fe276d87acfcc2b8af3111c631d055151f955227968909101558484528251808401845281815260048186019081527f25b6d7e6c6556014af271ecc05ab0505328cce8e4c44a37066d86cffe1035bd280548089018255908a5291519184027f22059ee03aea28af4860fb8412eec84fa94aa60611c3d304f85ad985e18b3c0581018054938c16938a1693909317909255517f22059ee03aea28af4860fb8412eec84fa94aa60611c3d304f85ad985e18b3c06909101558484528251808401909352825260039282019283527f86e06bd84151fd6584473c585985495703fa27a5bf911ecf114e201ac339eb1b8054948501815590955251919093027fe960fa65af90dee1564af0c68272ed1c0ccdebc50c3e36e9af187d6fbc74540081018054929095169190921617909255517fe960fa65af90dee1564af0c68272ed1c0ccdebc50c3e36e9af187d6fbc74540190910155610276565b60006020828403121561025857600080fd5b81516001600160a01b038116811461026f57600080fd5b9392505050565b6102fd806102856000396000f3fe608060405234801561001057600080fd5b50600436106100575760003560e01c80632a16854c1461005c578063c954320914610093578063e4758202146100a8578063f851a440146100bb578063f9153514146100e6575b600080fd5b61006f61006a36600461028c565b610114565b604080516001600160a01b0390931683526020830191909152015b60405180910390f35b6100a66100a136600461028c565b61015a565b005b6100a66100b636600461028c565b610216565b6000546100ce906001600160a01b031681565b6040516001600160a01b03909116815260200161008a565b6101066100f43660046102ae565b60026020526000908152604090205481565b60405190815260200161008a565b6001602052816000526040600020818154811061013057600080fd5b6000918252602090912060029091020180546001909101546001600160a01b039091169250905082565b600082815260026020526040812054908190036101b75760405162461bcd60e51b8152602060048201526016602482015275149958d95a5c1d0818dbd919481b9bdd08199bdd5b9960521b60448201526064015b60405180910390fd5b6000908152600160208181526040808420815180830190925233825281830195865280548085018255908552919093209251600290910290920180546001600160a01b0319166001600160a01b03909316929092178255915191015550565b6000546001600160a01b0316331461027a5760405162461bcd60e51b815260206004820152602160248201527f4f6e6c792061646d696e2063616e2063616c6c20746869732066756e6374696f6044820152603760f91b60648201526084016101ae565b60009182526002602052604090912055565b6000806040838503121561029f57600080fd5b50508035926020909101359150565b6000602082840312156102c057600080fd5b503591905056fea2646970667358221220228a2007878475de7e588127e7ded54f495c619c96a315d0e3f85d9e86a87f8f64736f6c63430008150033",
    "linkReferences": {}
  },
  "methodIdentifiers": {
    "addReceiptCode(bytes32,uint256)": "e4758202",
    "admin()": "f851a440",
    "submitReview(bytes32,uint256)": "c9543209",
    "submittedReviews(uint256,uint256)": "2a16854c",
    "unusedReceiptCodes(bytes32)": "f9153514"
  },
  "id": 20
}